:200000000C94FB0D0C94160E0C94160E0C94160E0C94160E0C94160E0C94160E0C94160EDC
:200020000C94160E0C94160E0C94146A0C94160E0C94160E0C94160E0C94C5680C94160E3D
:200040000C942B6A0C94160E0C94160E0C94160E0C94160E0C94160E0C94160E0C94160E0F
:200060000C94160E0C94D16A0C94160E0C94160E0C94160E0C94160E0C94160E0C94160E49
:200080000C94160E0C94160E0C94160E00FF8D7312DE13FE529202001010101010101010AE
:2000A00010000000FF292939E9292F20000000FC02027884848400007884848478007884C9
:2000C00084847800FC8080800202FC00F84B48F901F84A498800414000F800484848F80043
:2000E000784848C803794140F8017A4A49F800C849497800F84848C800784848C800F84803
:2001000048F800784848F800F94948C803027A8300837A02FB4848480803F84ACA4A3300E5
:20012000324A4A4B800008F80B00F20A0A0BF003FA126280FB0202838002027A8300837A31
:200140000203F8027A4243F80302020300000001020100000302020202000300000102008A
:2001600002020202010002030200010202020100030000010300000101000000010201005A
:200180000000030000000003000000000000000000000080404020101008080404040404F5
:2001A0000202FE020204040404040808101020404080000000000000000000C020180403D6
:2001C000000000000000000000000000000000FF00000000C02020C000C02020C0006063DD
:2001E000041820C0000070F87720202020202020202020202020202020202020FF24243C41
:200200002024292927202728282720202020202027F87000001F20C0000000000000000015
:20022000000000000000000000FF0000000000000000000000000000000000C0201F0000C0
:2002400000000000000106081010204040808000000000000000FF000000000000008080D0
:200260004040201010080601000000000000000000000000000000000000000001010101AB
:2002800001020203020201010101010000000000000000000000000000000000000000004D
:2002A00000804040201010080804040404040207FF07020404040404080810102040408065
:2002C000000000000000000000C020180403000000000000000000000000000000FF000020
:2002E0000000C02020C000C02020C0006063041820C0000070F877202020202020202020C0
:2003000020202020202020202020FF24243C2024292927202728282720202020202027F8C0
:200320007000001F20C00000000000000000000000000000000000FF00000000000000004F
:20034000000000000000000000C0201F0000000000000001060810102040408080000000CF
:2003600000000000FF000000000000008080404020101008060100000000000000000000AF
:2003800000000000000000000000010101010102070707020101010101000000000000003A
:2003A0000000000000000000000000000000008040402010100808040404040402020202D1
:2003C0000204040404847C1C1C1020404080000000000000000000C02018040300447E40A2
:2003E000004462524C003C42423C000303008060180601000000000000000003041820C0B9
:20040000000070F8772020202020202020202020202020202030282424DA0611F800001064
:2004200088483000F00808F0000C0C0007F80000001F20C000000010F8000010884830009E
:20044000F00808F0000C0C030D31C1000101010100000101000000C0201F0000000000008D
:20046000000106081111214041818101000001010000000000000000030CF0E0E040201075
:20048000100806010000000000000000000000000000000000000000010101010102020232
:2004A000020201010101010000000000000000000000000000000000000000000080404033
:2004C00020101008080404040404020202020204040404040808101020404080000000004A
:2004E0000000000000C0383C1C13202040408080000000447E40004462524C003C42423C97
:20050000000303808040402020131C3C38C0000000F80700000000000000000000010202AE
:20052000040408081010F01090780804040202010000000000000000000007F80000001F48
:2005400020C0447E40004462524C003C42423C00030300FF01447E40004462524C003C42AF
:20056000423C000303C0201F00000000000000010608101020404080800000000000000029
:20058000FF000000000000008080404020101008060100000000000000000000000000008D
:2005A000000000000000010101010102070707020101010101000000000000000000000018
:2005C000000000003048484850606060606060504854523E2151A9A5958F854931212120C2
:2005E0003028241C102854524A666264646848445251513F7F41414141414141414141413A
:200600007F7F7F7F7F7F7F7F7F7F7F7F7F7F7F7F7F7F7F7F7F7F7F7F4141414141414141EA
:200620004141417F454C450041494C00504954005357415348204D4958005355422054529B
:20064000494D000000000080C0E0F078383C1E0E0F070707FFFFFF070707060E0E1E3C38F2
:2006600078F0E0C08000000000000000000000000080C0E0F078383C1E0E0F070707FFFFA8
:20068000FF070707060E0E1E3C3878F0E0C080000000000000F8FEFF8F8380808080808003
:2006A0008080C0E0FF7FFFE0C0808080808080808080838FFFFEF80000000000000000F8FE
:2006C000FEFF8F838080808080808080C0E0FF7FFFE0C0808080808080808080838FFFFEBF
:2006E000F8000000001FFFFFC3830303030303030303070FFEFCFE0F07030303030303034E
:20070000030383C3FFFF1F00000000000000001FFFFFC3830303030303030303070FFEFCE5
:20072000FE0F0703030303030303030383C3FFFF1F00000000000003070F1E3C3878F0E034
:20074000E0C0C0C0FFFFFFC0C0C0C0E0E0F078383C1E0F07030000000000000000000000A9
:200760000003070F1E3C3878F0E0E0C0C0C0FFFFFFC0C0C0C0E0E0F078383C1E0F07030096
:2007800000000000000000000000000000000000010101010101010101010000000000004F
:2007A000000000000000000000000000000000000000000000000000000001010101010133
:2007C00001010101000000000000000000000000000000000000000000000000000080F89D
:2007E000FFFFFFFFFFFF3FBFFFFFFFFFFFFFFFFFBFBF9F9F9FBFFFFFFFFFFFFDFDB5B5B5DB
:20080000B5B5B59595959595959595959595959595951501000000000000000000000000E8
:200820000000000000F0FFFFFFFFFFFFFF7F7E7E7F7F7F7F7F7F7F7F7FFFFEFEFAFAFAFAFA
:20084000DADA5A5A5A5A5A5A5A4A4A4A4A4A4A4A4A4A4A4A4A4A4A4A0A000000000000000E
:200860000000000000000000000000E0FEFFFFFFFFFFFF1F0100071F3F7F7FFFFFFCF8F833
:20088000F8F8FCFFFFFFFFBFBFAFADADADADADA5A5A5A5A5A5A5A5A5A5A5A5A5A5250500B2
:2008A0000000000000000000000000434F5059004D4F44554C0054595045004E414D450019
:2008C0004D4F4445004D4F444534004D4F444533004D4F444532004D4F44453100535449A5
:2008E000434B005B434F50592020202020205D005B535449434B20534554205D005B4D4F5E
:2009000044455541542020205D005B545950452053454C45205D005B4D4F4445204E414DC8
:20092000455D005B4D4F44452053454C455D0053595354454D2053455454494E4700414447
:2009400056414E43452053455454494E470042415349432053455454494E470053595354F9
:20096000454D2053455454494E47004D454E5500474C4944004143524F0048454C490054B7
:200980005950450050434D0050504D004D4F44554C41540048454C49340048454C49332DAE
:2009A000320048454C49332D310048454C49320048454C49310048454C4900474C49443237
:2009C00000474C49443100474C4944005B50524F3C3132333E5D005B44454C4159202020C3
:2009E0005D005B53544E545452494D5D005B4759524F53454E535D005B54494D455220200F
:200A0000205D005B444953504C4159205D005B545241494E4552205D005B484F562D504970
:200A200054205D005B484F562D544852205D0046554E432053455454494E47203C322F32AC
:200A40003E005B4641494C205341465D005B5245564F2F4356205D005B5452494D202020B7
:200A6000205D005B442F5220455850205D005B53574153484146525D005B54485220484F38
:200A80004C445D005B452E504F494E54205D005B5355425452494D205D005B5049542F43DC
:200AA0005620205D005B5448522F435620205D005B52455645525345205D0046554E432055
:200AC00053455454494E47203C312F323E005B54485244454C41595D005B41494C5641549B
:200AE0004F525D005B50524F472E4D49585D005B5448524E4545444C5D005B534E4F5052F1
:200B00004F4C4C5D005B454C45564F4E20205D005B562D5441494C20205D005B454C4556A4
:200B2000464C41505D005B4149524252414B455D005B41494C44494646205D005B464C4147
:200B4000505452494D5D0046554E432053455454494E47203C322F323E005B444953504C3E
:200B60004159205D005B54494D45522020205D005B4641494C205341465D005B49444C457E
:200B8000444F574E5D005B5452494D202020205D005B442F5220455850205D005B464C4174
:200BA0005045524F4E5D005B54485220484F4C445D005B452E504F494E54205D005B53558F
:200BC000425452494D205D005B545241494E4552205D005B52455645525345205D0046559E
:200BE0004E432053455454494E47203C312F323E005B454C45564F4E20205D005B464C410B
:200C00005045524F4E205D005B545241494E455220205D005B444953504C415920205D00B8
:200C20005B53504545444F4653205D005B53544152544F4653205D005B41494C45464C41EC
:200C400050205D005B464C415041494C45205D005B425554544552464C595D0046554E430C
:200C60002053455454494E47203C322F323E005B50524F472E4D49585D005B562D54414941
:200C80004C20205D005B454C4556464C41505D005B41494C20444946465D005B464C41501F
:200CA0005452494D5D005B54494D45522020205D005B4641494C205341465D005B545249EA
:200CC0004D202020205D005B442F5220455850205D005B452E504F494E54205D005B535568
:200CE000425452494D205D005B52455645525345205D0046554E432053455454494E47207B
:200D00003C312F323E005B4155582D434820205D005452494D0047595200464C5000415286
:200D200042004155580050495400474541005255440054485200454C450041494C005245AD
:200D400056455253450000000000000000000000808080808080808080808080808080800E
:200D600080808080808080000000000000000000000000000000008040300C0202FE0008ED
:200D80001414122A2A292927202023242424141414141414120A0A0A0A0A0A09040404059D
:200DA0000505050505050505050505050505050406050505050700F8008080C0C0C0E0E0CB
:200DC000F0F020202020504848444444444444484848302020202020604040404040404073
:200DE00040808080808080808060180404FC001F010204070F1F1F1F1F1F101010181412F2
:200E0000121111111111121212141414180808080808080808080808080808080808080849
:200E20000C0A0A0A0A07000101010101010101018141412121515189898D7D050705090948
:200E40000911112121212141414141414141414141414040404040E050285818F0E0000040
:200E600000000000000006070A4A9292929292F29190909090F098888404020202010101D3
:200E800001010101010101010101010101010101010303030100FF0101010101010101F13F
:200EA000F9FDFD01010101010101010101FDFDF9F1010101010101010101010101FFFF0047
:200EC0000000000000000003070F1F3F7EFCFCFCFCFCFC7E3F1F0F07030000000000000040
:200EE0000000000000FFFF0000000E0E0E0E0E0E0404040404FBFBFBFBFBFB040E1115155D
:200F0000151515151515111F0E00000000FFFF8080808080808080808080808080BFBFBFDA
:200F2000BFBFBF808080808080808080808080808080808080FFFF010101018101010101ED
:200F4000F18989C9C9898989EBFFFFEB898989C9C98989F1010101018101010101FFFF00D6
:200F6000000000F0F90E26834141212143478D28080C0A09288D47432121414183260EF9F4
:200F8000F000000000FFFF00000000FFFF804619202046462020194600E323E006192020D6
:200FA00046462020194680FFFF00000000FFFF808080809FBFB3A1A5E5E1E1E1E1E1A1A1A7
:200FC000A1A1A1A1A1A1ADE1EDE1EDE1EDA1B3BF9F80808080FFFFFFFFFFFFFFFFFFFFFF8D
:200FE000FFFFFFFFFFFFFFFFFFFFFFFFFFFFFFFFFFFFFFFFFFFFFFFFFFFFFFFFFFFFFFFF11
:20100000FF000000000000000000FE081008FE00FE9292928200FE081020FE007E8080804D
:201020007E000000000000000000FFFFFFFFFFFFFFFFFFFFFFFFFFFFFFFFFFFFFFFFFFFF48
:20104000FFFFFFFFFFFFFFFFFFFFFFFFFFFFFFFFFFFFFFFFFFFF0303030303030303030388
:20106000030303030303030303030303030303030303030303030303030303030303030310
:2010800003020202020202020202020202020202020202020202020202020202020202020F
:2010A0000202020202020202020203030303030303030303030303030303030303030303DA
:2010C000030303030303030303030303030303030303030303034D4F44452038004D4F4471
:2010E000452037004D4F44452036004D4F44452035004D4F44452034004D4F44452033006E
:201100004D4F44452032004D4F444520310041435400494E48004F4646004F4E00494432F4
:20112000004E4F5200494431004D4F44454C00535700444E5241544500534C415645004D61
:2011400041535445520050524F47204D4958330050524F47204D4958320050524F47204D7A
:2011600049583100455034004550330045503200455031004550300041434300535441000B
:201180005448524F4E4545444C45005249474854444E0052494748545550004C45465444C3
:2011A0004E004C45465455500053544E54205452494D0044495245005255444400534E4137
:2011C000502D524F4C4C00464C4150205452494D00454C453200454C453100454C45564F50
:2011E0004E004D495837004D495836004D495835004D495834004D495833004D49583200D2
:201200004D4958310050524F470052554432005255443100454C453200454C453100565485
:2012200041494C0045503400455033004550320045503100455030004D4958364355525691
:2012400045004D49583320435552004D49583720435552004D4958362043555200435552D7
:20126000564500535700534C415645004D4153544552004D495837004D495836004D4958AB
:2012800035004D495834004D495833004D495832004D4958310049444C45444F574E0052EF
:2012A000415445444E00454C4556464C415000454C453200454C45310041494C34004149D0
:2012C0004C330041494C5641544F520041494C4449464600464C503200464C503100464C85
:2012E000415045524F4E00464C503200464C5031005350454544204F465300464C50320075
:20130000464C5031005354415254204F46530052415445444E0041494C45464C41500046E2
:201320004C415041494C450050524553455400454C452D44454C4159004255545445524654
:201340004C59005448524F44454C4159004D4F44454C00454C455F44454C4159004149524B
:201360004252414B450052554444003C4944323E003C4944313E003C4E4F523E0053454324
:20138000004D494E0054494D4552004F544845522057494E47204D495820224F4E220045BD
:2013A00058503A00442F523A004348005357004348390043483800434837004348360043CA
:2013C0004835004E554C4C00484F562050495400484F56205448524F005049542054524915
:2013E0004D0047454152005448524F20484F4C4400494E4800414354004F4646534554007F
:20140000555052415445005241544500464C41500041494C4500454C45560041494C32005D
:2014200041494C3100535441544500F803F303E303E703C703CF038F039F03FF007F003FD6
:20144000003F031F030F038703C303FC00F300E700CF00CC039C033C033303F003E00383E5
:201460000307031C0398038C033803C70073006700E300F8007C001F000F00CC00C30063C3
:20148000003300300318030C0303033C007800F000E000C000C00380030003600070003029
:2014A00000380018001C000C000700415643004E4F5200504C4541534520574149542E2E79
:2014C0002E2E00504F494E54003C484F4C443E0053544154453A2000524154453A20200004
:2014E00028002900280029004241543A0054494D453A00464D2D50504D00464D2D50434D83
:201500000034003200310033003400330031003200310032003400330031003300340032A3
:201520000053595354454D2053455454494E47005B41444A20434F4E54524153545D00541F
:2015400048524F20524556455253453F0041444A20434F4E54524153540053595354454DE5
:201560002053455454494E470046554E432053455454494E47004D414E55414C004C4E4526
:2015800041523C003E005357203C4F4E3E005357203C4F46463E005357203C4F4E3E00530A
:2015A00057203C4F46463E005357203C4F4E3E005357203C4F46463E005357203C4F4E3E7E
:2015C000005357203C4F46463E005357203C4F4E3E005357203C4F46463E005357203C4F97
:2015E0004E3E005357203C4F46463E00285357204F4E2900285357204F46462900442F52CD
:2016000026455850004F4E004F46460043414E4E2754205553452041542048454C4931006F
:201620005448524F20435552564500504954434820435552564500280029003A0052455633
:20164000004E4F5200452E504F494E5400250025003A00204C3A0020523A0055503A0044A5
:201660004E3A004F4E3A004F463A00250025005245564F204355525645004641494C205382
:20168000414600462F530025004E4F52005448524F20484F4C440053544154453A00484F11
:2016A0004420504F533A0025005448524F204355543C4F4E3E005448524F204355543C4F41
:2016C00046463E00444953504C4159004155582D434800484F562054485200484F5620502C
:2016E000495400545241494E45520053544154453A004F4E004F4646004F4646004E4F523B
:20170000004759524F2053454E53005354440047590050524F473C3132333E0054554E4520
:20172000004D4F44454C2053454C00464D2D50504D00464D2D50434D004E414D45454449F4
:2017400054004E414D455B005D0050554C534520504F534954494F4E0050554C5345204352
:201760004F4445004D4F44554C4154494F4E00434F50590048454C49004143524F00474C80
:201780004944002D2D2D3E00414C4C00524553544F52452E2E2E2E004F4E004F4646004F7B
:2017A0004E004F4646004F4E004F4646004F4E004F4646004E4F52004944310049443200A4
:2017C0004F4E004F4646004F4E004F464600454550524F4D204552524F522100535749543F
:2017E0004348204552524F5221000102040810204080000000000000005E00000008060820
:2018000006287E287E28042A7E2A104626186462344A56205000000008060000182442004E
:201820000042241814083E081408083E08080000583800000808080800006060000060186E
:201840000600003C4A523C0000447E40004462524C00424A4A340038247E20002E4A4A3230
:20186000003C4A4A300002720A0600344A4A34000C52523C00006C6C00000054340000009C
:20188000081422001414141400002214080004520A043C5A5A623C007C12127C007E4A4A5C
:2018A00034003C424224007E42423C007E4A4A42007E0A0A02003C525234007E10107E00BA
:2018C000427E4200002040403E007E182442007E4040407E0418047E007E08107E003C4240
:2018E000423C007E12120C003C52225C007E1A2A4400244A522402027E0202003E40403E44
:201900001E2040201E7E2018207E422418244202047804020062524A4600007E4242000603
:201920001860000042427E0008040204084040404040000018180030484A2A7C3E5048481D
:20194000300038444444304848503E385454540800107C12120008545438007E100870002B
:20196000007A00002040403A00007C10284400007C4040780478047800780404780038443B
:20198000443800782424180018242478007C1008040048545424083C4848003C40203C4083
:2019A0001C2040201C3C4030403C006C10106C004C50503C0064544C44001038444400000F
:2019C0007E000000444438105F5F5F434343435F5F5F7D7D7D616161617D7D7D0000000001
:2019E00000000000000000000000004C0031003200330048004C003100320033004800068D
:201A00000100666C79736B7930310001646400006464000064640000000000000000000069
:201A200001010101000000000000000000FF64646464646464646464646464646464000063
:201A4000000000000000633B0000009CCE00326400020000000000000000000000000000E6
:201A6000000000000000000000000000000000000000000000000000000000000000000066
:201A8000000000000000000000000000000000000000000000000000000000000000000046
:201AA000000000000000000000000000000000000000000000000000000000000000000026
:201AC000000000000000009CCE003264000200009CCE003264000200009CCE003264000200
:201AE0000000000000000000000000000000000000000000000000000000010100666C7999
:201B0000736B793031000164640000646400006464000000000000000000000101010100B0
:201B20000000000000000000FF646464646464646464646464646464640000000000000066
:201B400000633B0000009CCE0032640002000000000000000000000000000000000064641D
:201B60002D3C3C0000000000009CCE003264000200009CCE003264000200009CCE003264BC
:201B8000000200009CCE003264000200009CCE00326400020000000000000000020000003D
:201BA00000000000000200000000000000000200009CCE003264000200009CCE003264001F
:201BC000020000000000000000000000000000000000000000000000000000000000000003
:201BE0000000000000000000000000000000000000000000000011241FBECFEFD0E1DEBFC7
:201C0000CDBF15E0A0E0B1E0EEEEFAEF02C005900D92A436B107D9F71CE0A4E6B5E001C039
:201C20001D92AA3FB107E1F70C94E4640C940000382FFA019081222339F496175CF49F5F14
:201C400090830E94B2730895391724F4915090830E94B27308950895FC01808191818150CF
:201C6000924024F080E092E0808391838081918180509E4F24F480E09EEF8083918308950C
:201C80000895CF93DF93262FEA0165E070E00E94077D822F992787FD9095680F791F653614
:201CA000710514F064E670E08FEF6C39780714F46CE97FEFCB01AA2797FDA095BA2F29E04B
:201CC000880F991FAA1FBB1F2A95D1F7BC01CD0124E630E040E050E00E941A7D888199813A
:201CE000820F931F88839983DF91CF9108951F93CF93DF93582F142FE90188819981181682
:201D000019060CF4652FAA2797FDA095BA2F262F332727FD3095432F532FBC01CD010E94D4
:201D2000DB7CDC01CB01BC01CD0123E530E040E050E00E94DB7CDC01CB01BC01CD0120E182
:201D400037E240E050E00E941A7DDA01C901212F332727FD3095829FA001839F500D929F37
:201D6000500D112448835983DF91CF911F910895E0916402F0916502E357FF4F9081ED5870
:201D8000F040992319F4EF57FF4F0CC0913019F4EC57FF4F07C0923019F4E957FF4F02C0A5
:201DA000E657FF4FE80FF11D8081992787FD90950895EF92FF920F931F93CF93F62ECA01D5
:201DC00036E0E32EE60E61E170E00E94077D262F67FF1BC02195C0E0022F112707FD109532
:201DE000101611065CF580E690E08C1B91092E2D3327AC016F2D77270E94B36CCF5F8C2FF8
:201E00009927801791077CF319C0C0E0062F112707FD1095101611068CF48C2F9927805AC3
:201E20009F4F2E2D3327AC016F2D77270E94B36CCF5F8C2F9927801791077CF3CF911F9100
:201E40000F91FF90EF900895E0915F02F09160023197F0936002E0935F0280818093C10527
:201E60000E94B2730E94D1790895DF92EF92FF920F931F93CF93DF93CDB7DEB72A970FB6C8
:201E8000F894DEBF0FBECDBFD82EF62E122F2223D9F4842F8595859585958595E82FFF27EB
:201EA000E7FDF095EF70F070E859FD4F80818983E42FFF27E7FDF095EF70F070E859FD4F72
:201EC00080818A832B8306C0BE016F5F7F4F842F0E940A6B20E0013009F4202FAE014F5F81
:201EE0005F4F123011F44F5F5F4F61E0E62E0FEF6F2D8D2D0E94AD6D2A960FB6F894DEBF7E
:201F00000FBECDBFDF91CF911F910F91FF90EF90DF900895DF92EF92FF920F931F93CF93F5
:201F2000F62E142FD22EC82F87FF0CC0E1E0EE2E00E0202F4BEA54E1612F8F2D0E94AD6D73
:201F4000C1950CC0181654F471E0E72E00E0202F4FEA54E1612F8F2D0E94AD6D00E08091ED
:201F6000C1058D1509F401E021E04C2F612F8F2D8E5E0E94350FCF911F910F91FF90EF90C3
:201F8000DF900895DF92EF92FF920F931F93D82E162F7A01852F992787FD9A9500E0202F42
:201FA000482F8D2D0E94350F202F4E2D612F8D2D845F0E94350F1F910F91FF90EF90DF9060
:201FC0000895CF93DF93EC01DB01FA01888199810190F081E02DE817F90724F49C012E1B9D
:201FE0003F0B03C09F01281B390B8D919C911197E817F9071CF48E1B9F0B04C0AF01481B81
:20200000590BCA01E883F983821793071CF02D933C9302C08D939C93DF91CF910895EF92DD
:202020000F930E94796EA1E0EA2E00E0202F43EB54E160E28AE00E94AD6D0E94BB7A0F916B
:20204000EF900895EF920F93863031F4EE2401E128E386EB9DE00EC08750823030F4EE24EC
:2020600001E128E386E49DE005C0EE2401E128E386E29EE00E941E6C0F91EF900895CF9299
:20208000DF92EF920F936C010E94796EEE240E2D2E2DA6016E2D8E2D0E94AD6D96E0890254
:2020A000C001112428E030E0AC01B90180E090E00E94B36C0F91EF90DF90CF9008957F927F
:2020C0008F929F92AF92BF92CF92DF92EF92FF920F931F93CF93DF93B82E762E842EC9010A
:2020E000E8019E2CFC2C1A2DAA240E943F10133091F08091590A863020F40990D881C02D1E
:202100000CC0863021F40A80DB81C02D06C00C80DD81C02D02C01A2D02C0112321F51F156F
:20212000E0F521E0C22ED12C1F2D20E081E0981639F48091C1059927C816D90609F4292DAD
:20214000872D8A0D91E0E92E00E049915991682F8B2D0E94AD6DA80C11500894C11CD11C82
:20216000112319F71AC010E01F15B8F4143028F000E4B02E143009F4AA24872D8A0DB1E068
:20218000EB2E00E0202F49915991682F8B2D0E94AD6DA80C1E0D1F1548F3DF91CF911F915A
:2021A0000F91FF90EF90DF90CF90BF90AF909F908F907F900895853269F48091C10581307F
:2021C00019F48091C20501C081508093C1050E94B2730895863279F49091C1058091C20567
:2021E000981721F481E08093C10503C09F5F9093C1050E94B273089508958823B9F1262F8C
:20220000332727FD3095CA0165E070E00E94077D260F371F442737FD4095542F25363105E2
:202220004105510524F024E630E040E050E02C398FEF38078FEF48078FEF580724F42CE98B
:202240003FEF4FEF5FEFCA01B90128EA30E040E050E00E94DB7CDC01CB01BC01CD0124E696
:2022600030E040E050E00E941A7D04C020E030E040E050E080916E05882311F0823021F4AA
:2022800020E030E040E050E0C90108953F924F925F926F927F928F929F92AF92BF92CF927D
:2022A000DF92EF92FF920F931F93CF93DF93CDB7DEB72F970FB6F894DEBF0FBECDBF5C01F0
:2022C0003B01F42E4901302E2E010894411C511C85E0E0E0F5E0D20101900D928A95E1F76F
:2022E0008091C105C82EDD240894C108D108842F0E94DB10B3E0FB1619F0E3E1FE1671F4A8
:20230000F601EA0DFB1D8081992787FD90958436910524F4019680830E94B273F4E0FF169B
:2023200019F024E1F21679F4F601EA0DFB1D8081992787FD9095AFEF8D399A0724F00197F9
:2023400080830E94B273EE24840120E030E0A901B301C5010E94826E00E010E0F801EA0D96
:20236000FB1D8081992787FD909566E0662E712C6C0E7D1EAA2797FDA095BA2FA301BC016B
:20238000CD010E94466B20E048010894811C911C8091C10599278816990609F421E053E0E8
:2023A000000F111F5A95E1F7802F8A5E41E0E42E0FEFA301682F8AE10E94AD6D8401053033
:2023C000110564F200E0202F43EC54E16DE0802F0E94AD6D332009F18091590A8630E8F4F3
:2023E000B9E1AB16BBE0BB0621F4202F49EC54E110C080916E05E82FFF27E7FDF095EE0F61
:20240000FF1FEC52FB4F31E0E32E00E0202F408151816DE088E20E94AD6DE1E1FE1671F484
:202420008091020A813051F4AC0CBD1CC40CD51CD6018C91F50180830E94B2732F960FB6F9
:20244000F894DEBF0FBECDBFDF91CF911F910F91FF90EF90DF90CF90BF90AF909F908F9022
:202460007F906F905F904F903F900895CF92DF92EF920F931F93CF93DF93182F6B01C42FF3
:20248000A1E0EA2E00E0202F40ED54E164E18AE00E94AD6D202F48ED54E16EE18AE00E9493
:2024A000AD6D8091C1058E1589F4CC2319F045EF53E102C041EF53E1F1E0EF2E00E02E2D5C
:2024C00064E18AE30E94AD6D2E2D11C0CC2319F045EF53E102C041EF53E1E1E0EE2E00E01F
:2024E000202F64E18AE30E94AD6D0E2D2E2D412F6EE18AE30E94350FC60165E070E00E9479
:20250000077D812F992787FD9095680F791F653671051CF0C4E6D0E008C08FEF6C3978072E
:202520001CF4CCE9DFEF01C0EB0100E021E04C2F6EE188E50E94350F71E0E72E202F40EE7A
:2025400054E16EE182E50E94AD6D202F42EE54E16EE180E70E94AD6D8C2F992787FD90958A
:20256000DF91CF911F910F91EF90DF90CF900895FF920F931F93CF93DF93CDB7DEB72197C7
:202580000FB6F894DEBF0FBECDBF8983162F042FF22E633011F0633141F420E0AE014F5F96
:2025A0005F4F602F8F2D0E94180E143011F0143141F421E0AE014F5F5F4F602F8F2D0E94A2
:2025C000180E8981992787FD909521960FB6F894DEBF0FBECDBFDF91CF911F910F91FF90B5
:2025E00008958F929F92AF92BF92CF92DF92EF92FF920F931F93CF93DF93CDB7DEB7689736
:202600000FB6F894DEBF0FBECDBF6C014B01042F87E0A5E0B5E0FE013B96982F0D9001923F
:202620009A95E1F7ACE0B5E0FE0172960D9001928A95E1F7842F0E94DB108091C105E82F16
:20264000FF277401EE0EFF1E0894E108F108033011F0033159F4EC0FFD1FD7019C9181896D
:20266000981724F49F5F9C930E94B273043011F0043171F48091C105FE01E80FF11DD7011D
:202680009C918285891724F491509C930E94B273C6010E943F1010E08091C205882309F152
:2026A000E12FFF27E7FDF095EE0FFF1FEE54FC4F89E01802C001112441E0E42E00E0202FF8
:2026C00040815181682F80E20E94AD6D1E0D212F332727FD30958091C205992728173907DD
:2026E000FCF28091590A8630B8F4F4018181E82FFF27E7FDF095EE0FFF1FE458FC4FA080B7
:20270000B180F4018281E82FFF27E7FDF095EE0FFF1FE458FC4F2AC0F401218192818630FE
:2027200099F4E22FFF27E7FDF095EE0FFF1FE45AFC4FA080B180E92FFF27E7FDF095EE0FD3
:20274000FF1FE45AFC4F12C0E22FFF27E7FDF095EE0FFF1FE459FC4FA080B180E92FFF272E
:20276000E7FDF095EE0FFF1FE459FC4FC080D18020E08091C105813009F4282FD4018C91EE
:20278000E82FFF27E7FDF095EE0FFF1FE456FC4F31E0E32E00E040815181602F88E50E94C0
:2027A000AD6D202F8091C105823009F42E2D91E0E92E00E0A50169E088E50E94AD6D202F00
:2027C0008091C105833009F42E2D81E0E82E00E0A60162E188E50E94AD6D03E0E02EF12C9F
:2027E000E80CF91CAA24BB2414E0C12ED12C12E000E08091C10599278C159D0509F401E0B9
:202800008A2D855E21E0F70141917F01682F82E50E94350F11500894C11CD11C89E090E04F
:20282000A80EB91E17FFE4CF20E08091C105873009F421E0F4018681E82FFF27E7FDF09514
:20284000EE0FFF1FE056FC4FB1E0EB2E00E04081518166E388E50E94AD6D68960FB6F894FE
:20286000DEBF0FBECDBFDF91CF911F910F91FF90EF90DF90CF90BF90AF909F908F900895ED
:202880008091590A863070F080919805863329F486E08093C10588E306C087E08093C1057A
:2028A00089E301C082E48093980581E08093C10585E08093C20508955F926F927F928F929B
:2028C0009F92AF92BF92CF92DF92EF92FF920F931F93CF93DF93CDB7DEB72A970FB6F894FE
:2028E000DEBF0FBECDBF6C013B01542EFF24F4160CF068C0AA24BB24450181E0F81609F407
:2029000053C08A2D8C5E71E0E72E00E0202F44EE54E1682F80E50E94AD6DC30165E070E0F6
:202920000E94077D9B01FF2019F092E0F91641F4F6018081992787FD9095280F391F08C03F
:20294000F6018081992787FD9095861B970B9C012536310514F024E630E0FFEF2C393F07EE
:2029600014F42CE93FEFBE016F5F7F4F822F0E940A6BC40163E0880F991F6A95E1F7182F74
:202980001C5E51E0E52E0FEF20E0AE014F5F5F4F612F86E50E94AD6D00E0202F46EE54E121
:2029A000612F80E70E94AD6D0894C11CD11CF3940894811C911C88E090E0A80EB91EF51423
:2029C0000CF49BCF2A960FB6F894DEBF0FBECDBFDF91CF911F910F91FF90EF90DF90CF908A
:2029E000BF90AF909F908F907F906F905F900895089508956F927F929F92AF92BF92CF92F1
:202A0000DF92EF92FF920F931F93CF93DF93CDB7DEB764970FB6F894DEBF0FBECDBF0E940E
:202A2000796E80919905882319F481E08093990587E00E94C07A0E942173AA2797FDA09523
:202A4000BA2FBC01CD010E941E7CDC01CB012DEC3CEC44E551E4BC01CD010E948D7CDC016B
:202A6000CB0120E030E04AE754E4BC01CD010E94BB7B5B016C0160938F05709390058093B3
:202A800091059093920520E030E040E251E40E942B7C9BE0692E712C6C0E7D1E18160CF048
:202AA00069C020E030E040E251E4C601B5010E94BB7BDC01CB01BC01CD010E94017CDC0101
:202AC000CB01982EE82FFF27E7FDF095EC5BFA4F80818B878AE0292D2802C0011124AA276A
:202AE00097FDA095BA2FBC01CD010E941E7CDC01CB019C01AD01C601B5010E94707B7B01E3
:202B00008C010E94017CDC01CB01982EE82FFF27E7FDF095EC5BFA4F80818C878EE28D87CC
:202B2000892D992787FD9095A92FB92FBC01CD010E941E7CDC01CB019C01AD01C801B7017A
:202B40000E94707B20E030E040E251E40E948D7CDC01CB01BC01CD010E94017CDC01CB01DA
:202B6000E82FFF27E7FDF095EC5BFA4F80818E871F863EC0C601B5010E94017CDC01CB0121
:202B8000982EE82FFF27E7FDF095EC5BFA4F80818B87892D992787FD9095A92FB92FBC018A
:202BA000CD010E941E7CDC01CB019C01AD01C601B5010E94707B7B018C018EE28C8720E081
:202BC00030E040E251E4C801B7010E948D7CDC01CB01BC01CD010E94017CDC01CB01E82F4F
:202BE000FF27E7FDF095EC5BFA4F80818D871E8611E0E12E0FEF20E0A301622F88E10E94BF
:202C0000AD6D00E0202F48EE54E1602F802F0E94AD6D202F4DEE54E1602F80E40E94AD6D98
:202C2000BE016F5F7F4F8091A00A0E940A6B8AE38D83B3018091A10A0E940A6B8D858E8340
:202C40008E858F8308870FEF2885AE014D5F5F4F622F8EE50E94AD6D8091650A8E1531F404
:202C6000E82E00E0202F43EF54E106C0B1E0EB2E00E0202F4AEF54E162E287E00E94AD6D34
:202C800080919905E82FFF27EE0FFF1FE657FC4FA1E0EA2E00E0202F408151816AE287E097
:202CA0000E94AD6D0FEF20E04CE55AE062E387E00E94AD6DEE2408E128E44AE06CE183ED99
:202CC00097E00E941E6C8091590A863039F401E128E346E261E486EB9DE012C08750823057
:202CE00040F4EE2401E128E346E261E486E49DE007C0EE2401E128E346E261E486E29EE034
:202D00000E941E6C2EE330E041E050E06AE070E0CA010E94B36C2EE330E044E050E06AE030
:202D200070E0CA010E94B36C2AE030E044E050E0B90181E090E00E94B36C2EE330E044E0B8
:202D400050E0B90181E090E00E94B36C2EE330E04BE750E06AE070E0CA010E94B36C2EE33D
:202D600030E04EE750E06AE070E0CA010E94B36C2AE030E04EE750E0B9018BE790E00E94FB
:202D8000B36C2EE330E04EE750E0B9018BE790E00E94B36C2BE330E0A901B90187E090E0D8
:202DA0000E94B36C2EE330E04BE350E0B90187E090E00E94B36C2EE330E047E050E06BE3BB
:202DC00070E0CA010E94B36C2EE330E04BE350E0BA01CA010E94B36C2BE330E048E750E0D4
:202DE000B90184E490E00E94B36C2EE330E048E750E0B90184E490E00E94B36C2EE330E08C
:202E000044E450E06BE370E0CA010E94B36C2EE330E048E750E06BE370E0CA010E94B36C86
:202E200080916C0565E00E94FA7C982E882309F524E230E041E050E0B90180E090E00E94B1
:202E4000B36C24E230E045E050E0B90184E090E00E94B36C23E230E044E050E0B90181E015
:202E600090E00E94B36C25E230E044E050E0B9012DC024E230E045E050E0B90180E090E01A
:202E80000E94B36C092D112707FD109584E290E0801B910B9C0145E050E0BC0180E090E0CE
:202EA0000E94B36C83E290E0801B910B9C0144E050E0BC0181E090E00E94B36C85E290E02E
:202EC000801B910B9C0144E050E0BC0181E090E00E94B36C80916B0565E00E94FA7C982ED7
:202EE000882309F524E230E04BE750E0B9018AE790E00E94B36C24E230E04FE750E0B9011F
:202F00008EE790E00E94B36C23E230E04DE750E0B9018BE790E00E94B36C25E230E04DE7EA
:202F200050E0B9012DC024E230E04FE750E0B9018AE790E00E94B36C092D112707FD1095CB
:202F400084E290E0801B910B9C014FE750E0BC018AE790E00E94B36C83E290E0801B910BF6
:202F60009C014EE750E0BC018BE790E00E94B36C85E290E0801B910B9C014EE750E0BC0122
:202F80008BE790E00E94B36C80916A0565E00E94FA7C982E882319F52BE330E041E250E0C1
:202FA0006AE370E0CA010E94B36C2FE330E041E250E06EE370E0CA010E94B36C2EE330E025
:202FC00040E250E06BE370E0CA010E94B36C2EE330E042E250E06BE370E0CA0126C02FE39F
:202FE00030E041E250E06AE370E0CA010E94B36C092D112707FD1095C80181962FE330E02C
:20300000AC016AE370E00E94B36CC80180962EE330E0AC016BE370E00E94B36CC8018296B8
:203020002EE330E0AC016BE370E00E94B36C80916D0565E00E94FA7C982E882319F52BE3F6
:2030400030E04EE550E06AE370E0CA010E94B36C2FE330E04EE550E06EE370E0CA010E9441
:20306000B36C2EE330E04DE550E06BE370E0CA010E94B36C2EE330E04FE550E06BE370E061
:20308000CA0129C02FE330E04EE550E06AE370E0CA010E94B36C092D112707FD1095C801EE
:2030A000825A9F4F2FE330E0AC016AE370E00E94B36CC801835A9F4F2EE330E0AC016BE369
:2030C00070E00E94B36CC801815A9F4F2EE330E0AC016BE370E00E94B36C64960FB6F894D5
:2030E000DEBF0FBECDBFDF91CF911F910F91FF90EF90DF90CF90BF90AF909F907F906F9013
:2031000008951092C1058CE08093C20580E00E94FA140895AF92CF92EF920F931F93182FF9
:203120000E94DB10812F8152823010F50E94B2731132C9F48091C10580935A0A809161023F
:20314000E82FFF27EE0FFF1FEE5AFA4F8081918141E050E06AE57AE0840F951F0E945C79BB
:203160000E94381AA3C00E94F8190E94240F9EC073E0A72EC090C20561E0E62E02E912E0A1
:203180002DED38E04AE062E180E00E945F10EE2408E220E549E160E383E496E00E941E6CA8
:2031A0008091C10599278230910549F1833091051CF4019741F07AC083309105E1F10497E4
:2031C00009F455C073C051E0E52E00E0202F41E055E165E28BE20E94AD6D202F43E055E1C8
:2031E00061E181E40E94AD6D202F45E055E165E287E50E94AD6D202F47E055E153C041E073
:20320000E42E00E0202F49E055E165E28BE20E94AD6D202F4BE055E161E181E40E94AD6D8B
:20322000202F4DE055E165E287E50E94AD6D202F4FE055E137C031E0E32E00E0202F41E14F
:2032400055E165E28BE20E94AD6D202F43E155E161E181E40E94AD6D202F45E155E165E2CA
:2032600087E50E94AD6D202F47E155E11BC021E0E22E00E0202F49E155E165E28BE20E94A8
:20328000AD6D202F4BE155E161E181E40E94AD6D202F4DE155E165E287E50E94AD6D202F8F
:2032A0004FE155E161E189E60E94AD6D1F910F91EF90CF90AF90089583E08093980580910D
:2032C0005A0A8093C10584E08093C20580E00E948A180895EF920F93CF93DF93082F0E9462
:2032E000DB10023289F40E94221BE0915F02F09160023197F0936002E0935F028081809309
:20330000C1050E94B2736FC00132B1F5E0915F02F09160028091C105808380915F029091F6
:20332000600201969093600280935F028091C105813019F40E94663E1DC0823019F40E9482
:20334000473F18C0833019F40E94CE3F13C0843019F40E94E0400EC0853019F40E945C19A3
:2033600009C0863019F40E94A74204C0873011F40E948F1A0E94B27381E295E10E943F10DA
:203380008091C105873029F140E050E020E0EA0121968091C1059927C817D90709F421E03F
:2033A000FA01E40FF51FE656FD4FB3E0440F551FBA95E1F7842F825FA1E0EA2E00E0428132
:2033C0005381682F80E20E94AD6DAE012697F4F20AC0E1E0EE2E00E02E2D40E355E16EE089
:2033E00080E20E94AD6DDF91CF910F91EF90089582E08093980581E08093C10587E080935D
:20340000C20580E00E946A190895EF920F93CF93C82F0E94796E01E0E02E00E0202F4FE36E
:2034200055E16CE088E10E94AD6D8C2F8152E816D8F000935B0AC13211F4E0925B0A8091B9
:203440006102E82FFF27EE0FFF1FEE5AFA4F8081918141E050E06BE57AE002960E945C7903
:203460000E94F8190E94240FCF910F91EF90089583E48093980580E00E94051A0895EF9252
:203480000F93CF93C82F0E94796E81E0E82E00E0202F4DE455E16CE088E10E94AD6DC43234
:2034A00031F48091C1058B3068F0815007C0C33249F48091C1058F3328F48F5F8093C105B7
:2034C0000E94B2738091C1058B50843318F08CE18093C1058091C2059091C105891719F006
:2034E000892F0E94887A8091C1058093C20500E021E0482F6EE1802F0E94350FC152C2307E
:2035000050F46091C10580E090E00E94537B0E94F8190E94240FCF910F91EF90089584E464
:203520008093980580E090E00E943E7B8093C1058093C20580E00E943F1A0895EF920F93E2
:20354000CF93082F0E94DB10013211F5E0915F02F09160028091C105808380915F029091EA
:20356000600201969093600280935F028091C105813021F40E94F8190E94B2738091C1056B
:20358000823009F05BC00E944D1C0E94B27356C0023251F4109298058AE49AE09093600258
:2035A00080935F020E94B2730E94796EEE2400E120E84E2D6E2D86ED9FE00E941E6CC091C7
:2035C000C105C13091F4EC2E00E228E24EE060E186E39FE00E941E6C00E0202F4AE555E192
:2035E00062E384E10E94AD6D09C0EE2400E228E24EE060E186E39FE00E941E6C8091C10544
:20360000823099F491E0E92E00E228E24EE068E486E99EE00E941E6C00E0202F49E655E1D0
:2036200062E380E20E94AD6D09C0EE2400E228E24EE068E486E99EE00E941E6CCF910F91CD
:20364000EF90089581E0809398058093C10582E08093C20580E00E949E1A0895CF92DF92FF
:20366000EF920F931F93CF93DF93182F0E94DB100E94796E8091C1059091590A8D3008F034
:203680005EC0963029F4C0E1CC2EC3E0DC2E0CC09750923028F4BCE3CB2EB3E0DB2E04C058
:2036A000ACEDCA2EA2E0DA2EEE240E2D2E2DF601408151816E2D8E2D0E94AD6DC82FDD27B0
:2036C000C7FDD095CE01880F991F880F991F8C0F9D1F8C0F9D1F2AE030E0AC01B90180E0C5
:2036E00090E00E94B36CC1E0D0E0C730D1051CF06C2F665001C06C2F82E090E0C80ED91E23
:2037000020E08091C10599278C179D0709F421E0660F660F660F6D5FC730D10514F480E06D
:2037200001C080E4E1E0EE2E00E0F601408151810E94AD6D2196CD30D105BCF261C0963042
:2037400029F476EFC72E72E0D72E0BC0973029F46AE2C62E63E0D62E04C05AECC52E52E036
:20376000D52EEE240E2D2E2DF601408151816E2D8E2D0E94AD6DC82FDD27C7FDD095CE010F
:20378000880F991F880F991F8C0F9D1F8C0F9D1F2AE030E0AC01B90180E090E00E94B36CCB
:2037A000CDE0D0E08091C20599278C179D0744F1C331D1051CF06C2F635102C06C2F6D5059
:2037C00082E090E0C80ED91E20E08091C10599278C179D0709F421E0660F660F660F655F4B
:2037E000C331D10514F480E001C080E431E0E32E00E0F601408151810E94AD6D2196D2CFD2
:20380000123279F40E94221BE0915F02F09160023197F0936002E0935F0280818093C10508
:2038200032C0113291F5E0915F02F09160028091C105808380915F0290916002019690938F
:20384000600280935F028091590A863049F48091C105E82FFF27EE0FFF1FEC54FE4F0FC0A0
:20386000E091C105873031F4FF27EE0FFF1FE657FE4F05C0FF27EE0FFF1FEA51FE4F01904B
:20388000F081E02D09950E94B273DF91CF911F910F91EF90DF90CF90089581E08093C10501
:2038A0008091590A863011F488E107C0873021F0883011F482E101C084E18093C2058CE055
:2038C0008093980580E00E942E1B08952F923F924F925F926F927F928F929F92AF92BF92F6
:2038E000CF92DF92EF92FF920F931F93CF93DF93CDB7DEB763970FB6F894DEBF0FBECDBF62
:203900006B874C875D8729010E871701CF86A88A898A5901FC01819191913F010E943F10D1
:2039200010E08091C2058823D1F0F88821E0E22E00E0202FF301419151913F016F2D8F85FB
:203940000E94AD6D1E0DF8A5FF0E212F332727FD30958091C2059927281739073CF38B85ED
:203960000E94DB10EC85FD851081111111E020E08091C105813009F4282FE12FFF27E7FD2D
:20398000F095EE0FFF1FE456FC4F8F853989830F91E0E92E00E04081518168898A5F0E9423
:2039A000AD6D8091590A863008F45EC08B858152E81608F459C00E94B2730E944D1CE09170
:2039C0005F02F09160023197F0936002E0935F0280818093C1058B85813209F042C0809179
:2039E0006102E82FFF27EE0FFF1FEE5AFA4F008111818091640290916502825A9F4F46E376
:203A000050E0BC01C801825A9F4F0E945C7980916402909165028A539F4F4BE050E0BC01CD
:203A2000C8018A539F4F0E945C7980916402909165028D519F4F48E150E0BC01C8018D51F3
:203A40009F4F0E945C798091640290916502895B9F4F43E050E0BC01C801895B9F4F0E94E3
:203A60005C790E94D1799AC14114510409F496C19E8519160CF0E9C01A8A1B8A4101CC24BA
:203A8000DD24192F88E0682E712C620C731CBE016F5F7F4FF20180810E940A6BF401408129
:203AA000413009F042C0F3018081918197FD24C050E08091C105282F3327C60102962817C5
:203AC000390709F4542F0894C11CD11CF8A58F2F992787FD9095C89E9001C99E300DD89EEB
:203AE000300D1124C9010894C108D1083889830FE42E0FEF252F3DC00894C11CD11CE8A5A5
:203B00008E2F992787FD9095C89E9001C99E300DD89E300D1124C9010894C108D108388933
:203B2000830FE42E0FEF20E024C040E08091C105282F3327C60102962817390709F441E05B
:203B40000894C11CD11CE8A58E2F992787FD9095C89E9001C99E300DD89E300D1124C901FF
:203B60000894C108D1083889830F01E0E02E0FEF242FAE014F5F5F4F682F8F859989890F04
:203B80000E94AD6D0894411C511CF4010081013009F048C0BE016F5F7F4FF20180810E946A
:203BA0000A6BF3018081918197FF27C040E08091C105282F3327C60102962817390709F489
:203BC000402F0894C11CD11CF8A58F2F992787FD9095C89E9001C99E300DD89E300D1124C9
:203BE000C9010894C108D1083889830F9F85E9899E0FE02E0FEF242F0AC08889FA898F0FCC
:203C0000865F9F852989920FE02E0FEF20E0AE014F5F5F4F682F892F885E0E94AD6D0894A4
:203C2000411C511C11500894C11CD11C82E090E0680E791E0894811C911CEA89FB893A9667
:203C4000EA8BFB8B112309F022CF12E08091C105992783309105CCF09C010894A11CB11CFA
:203C6000E12FFF27E7FDF095E20DF31D32978081813019F40894A11CB11C1F5F812F99270A
:203C800087FD90958217930744F3FB85F131F1F48091020A813009F081C08091C105A82FD4
:203CA000BB27F101EA0FFB1F32978081813061F4AA0FBB1FA20DB31DFD018481958197FF8C
:203CC00003C00894A11CB11CF50146C0FB85F33011F0F33179F59091C105913059F4EC8563
:203CE000FD858081882311F4908322C0EC85FD8510821EC0A92FBB27F101EA0FFB1F3297B1
:203D00008081813061F4AA0FBB1FA20DB31DFD018481958197FF03C00894A11CB11CF501FC
:203D2000808184363CF48F5F8083F9A5FF2311F40E94B2732B85243011F0243179F5909132
:203D4000C105913059F4EC85FD858081882311F4908322C0EC85FD8510821EC0A92FBB27D9
:203D6000F101EA0FFB1F32978081813061F4AA0FBB1FA20DB31DFD018481958197FF03C0EA
:203D80000894A11CB11CF50180818D393CF081508083F9A5FF2311F40E94B27363960FB6F6
:203DA000F894DEBF0FBECDBFDF91CF911F910F91FF90EF90DF90CF90BF90AF909F908F90A9
:203DC0007F906F905F904F903F902F9008958F92AF92CF92EF92FF920F931F93CF93DF93DF
:203DE000CDB7DEB7A2970FB6F894DEBF0FBECDBF182F1B861C861D861E86682F8091C105EB
:203E0000873071F4113159F0812F992787FD90958F7090708330910511F0049709F460E0C1
:203E20002091640230916502A901425A5F4F1F9288E08F93B6E38B2EA9E0AA2EF6E0CF2E8E
:203E4000EBE0EE2EF12CEC0EFD1E05E0215A3F4F8EEB94E00E94661CE0916402F09165028B
:203E6000ED59FF4F80810F900F9087FF03C010820E94BC73E0916402F0916502EC59FF4F71
:203E800000818091C105002359F4202F873009F421E071E0E72E46E755E169E380E42BC0F2
:203EA00020E0873009F421E061E0E62E00E04DE755E169E380E40E94AD6D8091C1058730B4
:203EC00009F40E2DE0916402F0916502EC59FF4F21E0408169E384E60E94350F20E08091E9
:203EE000C105873009F421E051E0E52E00E044E855E169E38CE70E94AD6D8091C1058730B8
:203F000059F51131B9F48091020A813099F4E0916402F0916502EC59FF4F80918D059091F3
:203F20008E0580509E4F6AE070E00E94077D60830E94B2731352123078F4E0916402F0915C
:203F40006502EC59FF4F8081882311F0108202C081E080830E94B27360916E05662339F421
:203F600041E0E42E062F262F46E855E107C031E0E32E00E0202F4EE855E1602F80E40E9407
:203F8000AD6DA2960FB6F894DEBF0FBECDBFDF91CF911F910F91FF90EF90CF90AF908F909D
:203FA000089581E08093C10587E08093C20580E00E94E71E87E28093980508958F92AF92CA
:203FC000CF92EF92FF920F93CF93DF93CDB7DEB768970FB6F894DEBF0FBECDBF982F198237
:203FE0001A821B821C822091640230916502A9014D515F4F1F928AE08F9360E3862E8DE014
:20400000A82E00E1C02E7E010894E11CF11C01E02C513F4F692F88EB94E00E94661CE091D6
:204020006402F0916502EC51FF4F80810F900F9087FF03C010820E94BC7368960FB6F8946D
:20404000DEBF0FBECDBFDF91CF910F91FF90EF90CF90AF908F90089581E08093C10582E0F6
:204060008093C20580E00E94DE1F8CE38093980508958F92AF92CF92EF92FF920F931F9382
:20408000CF93DF93CDB7DEB7A2970FB6F894DEBF0FBECDBF182F1B861C861D861E861F863D
:2040A000188A198A1A8A813111F58091020A8130F1F4E0916402F0916502E551FF4F809158
:2040C0008D0590918E0580509E4F6AE070E00E94077D6083E0916402F0916502E551FF4FF7
:2040E0008081853614F084E680830E94B273812F992787FD90958F7090700397029710F081
:20410000113129F48091C105873009F410E02091640230916502A9014B515F4F1F9288E079
:204120008F9300E4802EB9E0AB2EA0E1CA2EFBE0EF2EF12CEC0EFD1E05E02A513F4F612F38
:2041400088EA94E00E94661CE0916402F0916502E651FF4F80810F900F9087FF03C01082F7
:204160000E94BC73E0916402F0916502E551FF4FBE016F5F7F4F80810E940A6B20E08091A7
:20418000C105873009F421E0E1E0EE2E0FEFAE014F5F5F4F68E380E50E94AD6D60916905F3
:2041A000662331F000E0202F47E955E1602F06C071E0E72E062F262F4FE955E180E40E9407
:2041C000AD6DA2960FB6F894DEBF0FBECDBFDF91CF911F910F91FF90EF90CF90AF908F905B
:2041E000089581E08093C10587E08093C2058DE38093980580E00E94392008958F92AF922D
:20420000CF92EF92FF920F93CF93DF93CDB7DEB768970FB6F894DEBF0FBECDBF982F1982F4
:204220001A821B822091640230916502A90144515F4F1F9288E08F9370E4872E64E1A62EBC
:2042400080E1C82E7E010894E11CF11C02E023513F4F692F88E994E00E94661C0F900F901F
:2042600068960FB6F894DEBF0FBECDBFDF91CF910F91FF90EF90CF90AF908F90089581E0C0
:204280008093C10583E08093C2058FE38093980580E00E94FE2008958F92AF92CF92EF92E5
:2042A000FF920F931F93CF93DF93CDB7DEB7A2970FB6F894DEBF0FBECDBF682F1B861C86D2
:2042C0001D861E861F86188A8091590A883011F415E001C013E02091640230916502A9018D
:2042E00041515F4F1F9288E08F9300E2802EBCE0AB2EA0E1CA2EFBE0EF2EF12CEC0EFD1E9B
:20430000012F20513F4F8AE894E00E94661C8091640290916502412F60916705709168052A
:2043200080519F4F0E945C140F900F9080916E05813019F448EA55E102C040EB55E1E1E0E0
:20434000EE2E00E0202F602F80E40E94AD6DA2960FB6F894DEBF0FBECDBFDF91CF911F9164
:204360000F91FF90EF90CF90AF908F90089581E08093C1058091590A883011F486E001C0A3
:2043800084E08093C20580E48093980580E00E944C2108958F92AF92CF92EF92FF920F9348
:2043A0001F93CF93DF93CDB7DEB768970FB6F894DEBF0FBECDBF682F19821A821B821C820F
:2043C0001D821E828091590A883011F415E001C013E02091640230916502A9014B505F4F92
:2043E0001F9288E08F93F0E28F2EECE0AE2E70E1C72E7E010894E11CF11C012F2A503F4FA8
:204400008CE794E00E94661C8091640290916502412F60916505709166058A509F4F0E94F1
:204420005C1480916E050F900F90823039F491E0E92E00E0202F49EB55E106C081E0E82E0D
:2044400000E0202F41EC55E1622F80E40E94AD6D68960FB6F894DEBF0FBECDBFDF91CF9104
:204460001F910F91FF90EF90CF90AF908F90089581E08093C1058091590A883011F486E0B3
:2044800001C084E08093C20581E48093980580E00E94CA2108958F92AF92CF92EF92FF92A9
:2044A0000F93CF93DF93CDB7DEB768970FB6F894DEBF0FBECDBF982F19821A821B821C82EE
:2044C0002091640230916502A9014F585F4F1F928AE08F9360E3862E8DE0A82E00E1C02E58
:2044E0007E010894E11CF11C02E02E583F4F692F84E594E00E94661C0F900F906091640570
:20450000662341F0B1E0EB2E00E0202F4AEC55E1602F06C0A1E0EA2E062F262F42ED55E1BF
:2045200080E40E94AD6D68960FB6F894DEBF0FBECDBFDF91CF910F91FF90EF90CF90AF90FA
:204540008F90089581E08093C10583E08093C20580E00E944B228AE28093980508958F92DF
:20456000AF92CF92EF92FF920F93CF93DF93CDB7DEB768970FB6F894DEBF0FBECDBF982FEB
:2045800019821A821B821C822091640230916502A90140575F4F1F928AE08F93A0E38A2E03
:2045A000FDE0AF2EE0E1CE2E7E010894E11CF11C01E02F563F4F692F8EE494E00E94661CC9
:2045C0000F900F9060916905662339F0E02E00E0202F4BED55E1602F06C071E0E72E062FF1
:2045E000262F43EE55E180E40E94AD6D68960FB6F894DEBF0FBECDBFDF91CF910F91FF909B
:20460000EF90CF90AF908F90089581E08093C10582E08093C20580E00E94AF228FE28093F4
:20462000980508958F92AF92CF92EF92FF920F93CF93DF93CDB7DEB768970FB6F894DEBFEF
:204640000FBECDBF982F19821A822091640230916502A90142575F4F1F928AE08F9380E333
:20466000882E0DE0A02EB0E1CB2E7E010894E11CF11C01E021573F4F692F84EF93E00E9413
:20468000661C0F900F9068960FB6F894DEBF0FBECDBFDF91CF910F91FF90EF90CF90AF90F9
:2046A0008F90089581E08093C10582E08093C20580E00E9412238EE28093980508958F92B3
:2046C000AF92CF92EF92FF920F931F93CF93DF93CDB7DEB768970FB6F894DEBF0FBECDBF9F
:2046E000182F19821A821B821C821E821F82E0916402F0916502E357FF4F8081ED58F04003
:20470000882321F49F012F573F4F0FC0813021F49F012C573F4F09C0823021F49F0129572F
:204720003F4F03C09F0126573F4F612F8091C105853029F4812F8552823008F060E0E0589B
:20474000FF4F1F928AE08F9350E3852E4DE0A42E90E1C92E7E010894E11CF11C03E0AF01C9
:2047600088EE93E00E94661C8091C1050F900F90853009F04BC0812F81528230F0F4113202
:20478000C1F480916102E82FFF27EE0FFF1FEE5AFA4F2081318180916402909165028058DD
:2047A0009F4F4EE050E0BC01C90180589F4F0E945C790E944D1C0E94240F1332B1F40E947D
:2047C000B273E0916402F0916502E357FF4F80818F5F8083E0916402F0916502E357FF4F34
:2047E000808184309CF0108211C0143279F40E94B273E0916402F0916502E357FF4F808153
:20480000882311F483E001C0815080838091C105E0916402F0916502853079F4E357FF4FB0
:204820008081E82FFF27E7FDF095EE0FFF1FEA52FC4FEE240E2D21E00EC0E357FF4F80818A
:20484000E82FFF27E7FDF095EE0FFF1FEA52FC4FEE240E2D2E2D4081518165E380E40E9487
:20486000AD6D80919A05813031F4EE240E2D2E2D4CEE55E105C0EE240E2D2E2D44EF55E1AA
:20488000622F80E40E94AD6D68960FB6F894DEBF0FBECDBFDF91CF911F910F91FF90EF90F4
:2048A000CF90AF908F90089581E08093C10585E08093C20580E00E945F238DE28093980582
:2048C00008958F929F92AF92CF92DF92EF92FF920F931F93CF93DF93CDB7DEB725970FB602
:2048E000F894DEBF0FBECDBFF82E0E94DB108F2D8152823008F073C081E2F81609F06AC083
:2049000080916102E82FFF27EE0FFF1FEE5AFA4F0081118141E050E066E67AE0C8010D96C4
:204920000E945C7941E050E067E67AE0C8010E960E945C7941E050E068E67AE0C8010F96BD
:204940000E945C7941E050E069E67AE0C80140960E945C7941E050E06AE67AE0C801419635
:204960000E945C7941E050E06BE67AE0C80142960E945C7941E050E06CE67AE0C80143960D
:204980000E945C7941E050E06DE67AE0C80144960E945C7941E050E06EE67AE0C8014596E5
:2049A0000E945C7941E050E06FE67AE0C80146960E945C7941E050E060E77AE0C8014796CC
:2049C0000E945C7941E050E061E77AE0C80148960E945C790E944D1C0E94240F4EC2A3E0DC
:2049E000AA2EF4E0CF2EEE2402EE14E02DEF35E14AE06FE08E2D0E945F108EE78983EA82B4
:204A00000FEF2E2DAE014F5F5F4F6E2D8DE40E94AD6D8FE78983EA822E2DAE014F5F5F4F16
:204A20006E2D8BE70E94AD6D80E88983EA822E2DAE014F5F5F4F68E38DE40E94AD6D81E886
:204A40008983EA822E2DAE014F5F5F4F68E38BE70E94AD6D8091C10599278230910569F1C6
:204A6000833091051CF4019729F0D2C0039709F479C0CEC093E0F91619F0E3E1FE1661F484
:204A80008091490A8F5F8093490A84301CF081E08093490A0E94B273F4E0FF1621F084E1B1
:204AA000F81609F0B5C08091490A813011F483E001C081508093490AA9C08091490A992778
:204AC00087FD909582309105B9F0833091051CF4019721F02CC00397E9F029C08091950547
:204AE000882329F0E6E68E2EEAE09E2E20C077E6872E7AE0972E1BC080919405882329F07A
:204B00006AE6862E6AE0962E12C05BE6852E5AE0952E0DC080919305882329F04EE6842EA0
:204B20004AE0942E04C03FE6832E3AE0932E93E0F91619F0E3E1FE1641F4F40180818436CC
:204B400021F08F5F80830E94B273F4E0FF1621F084E1F81609F05CC0F4018081882309F46C
:204B600057C052C08091490A992787FD909582309105B9F0833091051CF4019721F02CC060
:204B80000397E9F029C080919505882329F028E6822E2AE0922E20C099E6892E9AE0992E6B
:204BA0001BC080919405882329F08CE6882E8AE0982E12C00DE6802E0AE0902E0DC080915B
:204BC0009305882329F010E7812E1AE0912E04C0B1E78B2EBAE09B2EF3E0FF1619F083E14D
:204BE000F81641F4F4018081843621F08F5F80830E94B273F4E0FF1619F084E1F81641F45F
:204C0000F40180818C3921F0815080830E94B2738091490A813059F410919505A6E6CA2E0C
:204C2000AAE0DA2E80918B0590918C0517C0823059F410919405FAE6CF2EFAE0DF2E8091AA
:204C4000890590918A050AC010919305EEE6CE2EEAE0DE2E809187059091880564E170E08D
:204C60000E94077DCB018A599F4F27E330E0AC0167E070E00E94B36CF1E1FF16E9F480917D
:204C8000020A8130C9F48091C105823051F4112321F084E6F60180830DC084E6F6018183F1
:204CA00009C0833039F4112319F0F601128202C0F60113830E94B27320E08091C1058130E5
:204CC00009F4282F8091490AE82FFF27E7FDF095EE0FFF1FE453FB4F71E0E72E00E04081D3
:204CE000518169E18DE10E94AD6D8091C105823009F40E2D112319F0F601408102C0F601FF
:204D0000418121E063E287E10E94350F82E090E0C80ED91E00E08091C105833009F401E056
:204D2000112319F0F601408102C0F601418121E06DE287E10E94350FF6018081882311F0C1
:204D4000112331F4F60181818823A9F0112399F4112359F0F60160818EEF9FEFC80ED91ECF
:204D6000F60180810E94427167C0F601618182910E94427166C0112381F18EEF9FEFC80ED1
:204D8000D91EF6018081992787FD9095A92FB92FBC01CD010E941E7CDC01CB0123E333E36F
:204DA00043E850E4BC01CD010E94BB7BDC01CB01BC01CD010E94017CDC01CB01BC0180E216
:204DC00090E0861B970B605E7F4F9C014EE750E08EE490E00E94B36C2FC00894C108D108C2
:204DE000F6018081992787FD9095A92FB92FBC01CD010E941E7CDC01CB0123E333E343E8DB
:204E000050E4BC01CD010E94BB7BDC01CB01BC01CD010E94017CDC01CB01BC0180E290E070
:204E2000861B970B605E7F4F9C014EE750E08EE490E00E94B36C05C0112319F045E056E1A0
:204E400002C048E056E161E0E62E00E0202F6FE089E10E94AD6D27E330E046E650E067E07B
:204E600070E0CA010E94B36C20E230E04FE750E0B9018DE490E00E94B36C25960FB6F89476
:204E8000DEBF0FBECDBFDF91CF911F910F91FF90EF90DF90CF90AF909F908F90089581E095
:204EA0008093C10583E08093C2058093490A8DE08093980580E00E94612408958F929F92E3
:204EC000AF92CF92DF92EF92FF920F931F93CF93DF93CDB7DEB725970FB6F894DEBF0FBEF5
:204EE000CDBFE82E0E94DB108E2D81528230C8F481E2E81689F480916102E82FFF27EE0FFB
:204F0000FF1FEE5AFA4F8081918148E050E062E77AE049960E945C790E944D1C0E94240F9E
:204F200067C091E1E91669F48091020A813049F48091C105E82FFF27EF58F54F10820E949E
:204F4000B2738091C105082F11270F58154F28E848E76E2DD8018C910E94B812F8018083E3
:204F6000E1E0AE2E78E0C72EEE2406E513E02AE336E04AE06EE08E2D0E945F1062E7862EF3
:204F80006AE0962E1E2DEE24FF24670153E0A52E00E08091C105282F3327E12FFF27CF01A7
:204FA000880F991F880F991F8C0D9D1D01962817390709F401E08E2D825FB6E0EE0FFF1FBF
:204FC000BA95E1F721E0D4014D914D01682F8E2F885E0E94350FAA940894C11CD11CEAE01A
:204FE000F0E0EE0EFF1EA7FED3CF1F5F123058F225960FB6F894DEBF0FBECDBFDF91CF91A5
:205000001F910F91FF90EF90DF90CF90AF909F908F90089581E08093C10588E08093C205BE
:205020008EE08093980580E00E945E270895AF92CF92EF92FF920F931F93CF93DF93CDB7CE
:20504000DEB725970FB6F894DEBF0FBECDBFF82E1091590A113019F50E94796EE12E00E0C7
:20506000202F4CE056E160E286E00E94AD6D0E94BB7A8AEF8093AA058091AA058030E1F7C0
:205080000E944D1CE0915F02F09160023197F0936002E0935F0280818093C10597C08152CB
:2050A0008230D0F481E2F81691F480916102E82FFF27EE0FFF1FEE5AFA4F8081918143E0F1
:2050C00050E06FEB7AE08A599F4F0E945C790E944D1C0E94240F7AC08F2D0E94DB1081E1DF
:2050E000F81671F48091020A813051F48091C105E82FFF27E254F54F8CE380830E94B27363
:20510000F3E0AF2EC090C205EE2402E812E020E336E04AE06EE084E10E945F108091C105FC
:2051200099278230910599F0833091051CF4019721F020C00397A9F01DC02CE944E66F2D11
:205140008091BF0A0E94B8128093BF0A13C02CE944E66F2D8091C00A0E94B8128093C00A5B
:2051600009C02CE944E66F2D8091C10A0E94B8128093C10A00E08091C105813009F4082FC9
:2051800021E04091BF0A6EE08CE20E94350F00E08091C105823009F401E021E04091C00AEF
:2051A00068E18CE20E94350F8091590A8350833068F400E08091C105833009F401E021E0B3
:2051C0004091C10A62E28CE20E94350F25960FB6F894DEBF0FBECDBFDF91CF911F910F9179
:2051E000FF90EF90CF90AF90089581E08093C1058091590A8350833010F483E001C082E0A8
:205200008093C2058FE08093980580E00E94172808950F931F93CF93DF93182F81528230C3
:2052200060F5113229F580916102E82FFF27EE0FFF1FEE5AFA4F0081118149E050E065EAA0
:205240007AE0C801845B9F4F0E945C7949E050E068EC7AE0C80181599F4F0E945C7949E0AF
:2052600050E061ED7AE0C80188589F4F0E945C790E944D1C0E94240F41C08091590A86303D
:20528000B8F480916E05992787FD90958130910549F0823091051CF4892B51F00BC0029744
:2052A00021F008C0C8ECDAE005C0C1EDDAE002C0C5EADAE040916705509168056091C30A06
:2052C0008091C20A0E94FD1001E09C01412F60E276E1CE010E94461180918D0590918E059C
:2052E00063E170E00E94077DCB018C599F4F26E330E0AC0162E070E00E94B36CDF91CF916C
:205300001F910F91089581E08093C10585E08093C20580E18093980580E00E940929089545
:205320000F931F93CF93DF93182F80916102E82FFF27EE0FFF1FEE5AFA4F0190F081E02D92
:2053400080916905882351F08091A30A882331F0C9E1DBE0DF01A054BF4F24C080916E05A9
:20536000282F332727FD30952130310581F0223031051CF4232B29F015C02230310569F0E6
:2053800011C0CAEDDAE0DF01AF57BF4F0BC0C3EEDAE0DF01A657BF4F05C0CCEEDAE0DF019D
:2053A000AD56BF4F812F8152823068F4113231F449E050E0BE01CD010E945C790E944D1C7B
:2053C0000E94240F24C040916505509166056091C60A8091C50A0E94FD1001E09C01412F4F
:2053E0006BE276E1CE010E94461180918D0590918E0563E170E00E94077DCB018C599F4F91
:2054000026E330E0AC0162E070E00E94B36CDF91CF911F910F91089581E08093C10585E017
:205420008093C20581E18093980580E00E9490290895AF92BF92CF92DF92EF92FF920F9310
:205440001F93CF93DF93CDB7DEB72A970FB6F894DEBF0FBECDBF182F0E94DB10812F81524E
:205460008230C0F4113289F480916102E82FFF27EE0FFF1FEE5AFA4F8081918144E050E042
:205480006AE77AE081960E945C790E944D1C0E94240FD1C08091C105813029F42AE7C22EBC
:2054A0002AE0D22E12C0823029F49BE7C92E9AE0D92E0BC0833029F48CE7C82E8AE0D82ED3
:2054C00004C00DE7C02E0AE0D02E113149F48091020A8130C9F4F60180830E94B27314C09F
:2054E000133011F0133131F420E0A60168E281E00E94180E143011F0143131F421E0A6018E
:2055000068E2822F0E94180EAA24B4E0CB2EEA2C06E513E021E13DE04CE06DE084E10E94DA
:205520005F10EE24FF2467010894C11CD11CF2E0CF16D104A9F023E0C216D1042CF431E0F3
:20554000C316D10451F014C083E0C816D10459F0E4E0CE16D10451F00BC0B0907A0A08C014
:20556000B0907B0A05C0B0907C0A02C0B0907D0A00E08091C105992701978E159F0509F4FF
:2055800001E08CE090E0E89E9001E99E300DF89E300D1124C901835F22E04B2D682F82E349
:2055A0000E94350F32E0C316D104A9F083E0C816D1042CF4E1E0CE16D10451F014C0F3E014
:2055C000CF16D10459F024E0C216D10451F00BC0B090430A08C0B090CD0B05C0B090460A49
:2055E00002C0B090540B8CE090E0E89EF001E99EF00DF89EF00D11241E2F135FA1E0EA2E53
:2056000000E0202F47E356E1612F84E40E94AD6D2E2D4B2D612F8AE40E94350F202F49E314
:2056200056E1612F82E60E94AD6D7601F4E0CF16D1040CF478CF2A960FB6F894DEBF0FBEB8
:20564000CDBFDF91CF911F910F91FF90EF90DF90CF90BF90AF90089581E08093C10584E0F9
:205660008093C20582E18093980580E00E94192A0895AF92CF92EF920F931F93CF93DF9310
:20568000C82FAA24A8E0CA2EF1E0EF2E06E513E02EE33DE04C2D6A2D80E40E945F108C2F8B
:2056A0000E94DB108C2F8352E816D8F04091870A242F332727FD30958091C105E82FFF27FB
:2056C000E15FFD4FE0818E2F992728233923232B19F0E0954E2301C04E2B4093870A0E943C
:2056E000B2738C2F81528230C0F4C13289F480916102E82FFF27EE0FFF1FEE5AFA4F8081C3
:20570000918141E050E067E87AE08E960E945C790E944D1C0E94240F91C060E070E0809110
:20572000870A282F332727FD3095FB01E05FFD4F8081992728233923AB01E3E0440F551F19
:20574000EA95E1F7EB012196232B39F0EE2408E028E168E58CE096E006C0EE2408E028E1DD
:2057600068E584EF95E00E941E6CBE012897BCF2E091C105E1508091590A863030F4FF27C0
:20578000EE0FFF1FE458FC4F0CC0FF27863029F4EE0FFF1FE45AFC4F04C0EE0FFF1FE459E2
:2057A000FC4F4081518161E0E62E00E0202F67E1802F0E94AD6D202F4BE356E167E188E16F
:2057C0000E94AD6D402F8091870A282F332727FD30958091C105E82FFF27E15FFD4F8081C1
:2057E000992728233923232B09F44E2D51E0E52E00E0242F4DE356E162E287E00E94AD6D37
:20580000402F8091870A282F332727FD30958091C105E82FFF27E15FFD4F80819927282331
:205820003923232B09F04E2D31E0E32E00E0242F41E456E16CE287E00E94AD6DDF91CF9158
:205840001F910F91EF90CF90AF90089581E08093C10588E08093C20583E18093980580E04E
:205860000E94392B08958F929F92AF92BF92CF92DF92EF92FF920F931F93CF93DF93CDB711
:20588000DEB72B970FB6F894DEBF0FBECDBFF82E81528230D0F521E2F21691F580916102F5
:2058A000E82FFF27EE0FFF1FEE5AFA4F40E9E42E4AE0F42E0081118138EFC32E3FEFD32E1E
:2058C000CE0CDF1C27E0822E912C41E050E0B601C8018F960E945C7941E050E0B701C80140
:2058E000C7960E945C790894810891080894C11CD11C0F5F1F4F0894E11CF11C97FEE5CFE5
:205900000E944D1C0E94240F22C28F2D0E94DB1083E0F81621F093E1F91609F059C0809152
:205920008B0590918C0597FD05C08091C105813009F43EC02091C105223039F480918905B4
:2059400090918A0597FF34C009C0233039F480918D0590918E0597FF2BC009C0243039F4A2
:20596000809187059091880597FF22C009C0253039F4809185059091860597FF19C009C09A
:20598000263039F4809183059091840597FF10C007C0273029F4809181059091820506C09B
:2059A000283061F480917F0590918005992334F08091C10599278957954F04C0822F99278F
:2059C0008157954F20E0AC0168E7822F0E94180EE4E0FE1621F0F4E1FF1609F059C08091A0
:2059E0008B0590918C0597FD05C08091C105813009F43EC02091C105223039F480918905F4
:205A000090918A0597FF34C009C0233039F480918D0590918E0597FF2BC009C0243039F4E1
:205A2000809187059091880597FF22C009C0253039F4809185059091860597FF19C009C0D9
:205A4000263039F4809183059091840597FF10C007C0273029F4809181059091820506C0DA
:205A6000283061F480917F0590918005992334F08091C10599278957954F04C0822F9927CE
:205A80008157954F21E0AC0168E780E00E94180EAA2498E0C92EEA2C06E513E025E436E1D4
:205AA0004C2D6A2D80E30E945F1088249924540189E5C82E8AE0D82E2091C105822F9927E8
:205AC00001978815990509F07CC080918B0590918C0597FD02C02130E1F1223039F4809162
:205AE000890590918A0597FF34C009C0233039F480918D0590918E0597FF2BC009C02430A0
:205B000039F4809187059091880597FF22C009C0253039F4809185059091860597FF19C094
:205B200009C0263039F4809183059091840597FF10C007C0273029F48091810590918205F6
:205B400006C0283009F580917F05909180059923DCF001E022E0F60147A56A2D8EE40E94F5
:205B6000350F00E022E0F60147A96A2D86E60E94350FF1E1FF16A1F58091020A813081F56E
:205B800084E6F60187A71AC000E022E0F60147A56A2D8EE40E94350F01E022E0F60147A91E
:205BA0006A2D86E60E94350FF1E1FF16C9F48091020A8017A9F484E6F60187AB0E94B273AD
:205BC0000FC000E022E0F60147A56A2D8EE40E94350F22E0F60147A96A2D86E60E94350F70
:205BE00001E0E02E00E0202F4DE456E16A2D80E60E94AD6D202F4FE456E16A2D88E70E9405
:205C0000AD6D0894811C911C0894C11CD11C88E090E0A80EB91E98E0891691040CF44CCFF2
:205C2000E091C105E1508091590A863030F4FF27EE0FFF1FE458FC4F0CC0FF27863029F421
:205C4000EE0FFF1FE45AFC4F04C0EE0FFF1FE459FC4F4081518111E0E12E00E0202F67E12F
:205C6000802F0E94AD6D202F41E556E167E188E10E94AD6D8091C105992701978830910523
:205C800008F03CC0EE2D01C0EE0F8A95EAF78E2F1E2F1672B1F49E2F907D09F5897071F1CD
:205CA000092F292F43E556E16FE1892F9B870E94AD6D9B85092F292F47E556E168E2892FFA
:205CC0001BC000E0202F4BE556E16FE1802F0E94AD6D202F4FE556E168E2802F0DC0012FE8
:205CE000212F43E656E16FE1812F0E94AD6D212F47E656E168E2812F0E94AD6D8091C105F7
:205D0000E82FFF27E75AF54F00E022E046A56FE182E10E94350F8091C105E82FFF27E75A06
:205D2000F54F22E046A968E282E10E94350FB1E0EB2E202F4BE656E16FE184E20E94AD6DC8
:205D4000202F4DE656E168E284E20E94AD6D2B960FB6F894DEBF0FBECDBFDF91CF911F9196
:205D60000F91FF90EF90DF90CF90BF90AF909F908F90089581E08093C10588E08093C205B2
:205D800084E18093980580E00E94332C0895EF92FF920F93CF93C82F81528230C8F4C132AF
:205DA00091F480916102E82FFF27EE0FFF1FEE5AFA4F808191814BE150E065EF7AE084560A
:205DC0009F4F0E945C790E944D1C0E94240F46C080916E05992787FD90958130910571F0E3
:205DE000823091051CF4892B21F011C0029759F00EC075EFE72E7AE0F72E09C06EEFE62ED3
:205E00006AE0F62E04C057E0E52E5BE0F52E01E020E030E04C2F6FE676E1C7010E944611CF
:205E2000C13151F48091020A801731F4F70184E01192815087FFFCCF80918D0590918E05DA
:205E400063E170E00E94077DCB018C599F4F26E330E0AC0162E070E00E94B36CCF910F91D0
:205E6000FF90EF90089581E08093C10585E08093C20585E18093980580E00E94C72E089554
:205E80006F927F928F929F92AF92BF92CF92DF92EF92FF920F931F93CF93DF93F82E0E9438
:205EA000DB1083E0F81649F093E1F91631F0E4E0FE1619F0F4E1FF1609F540917E0A242F34
:205EC000332727FD30958091C105E82FFF27E15FFD4FE0818E2F992728233923232B19F003
:205EE000E0954E2301C04E2B40937E0A0E94B27310926702109266021092AC05AA2408E042
:205F0000C02EEA2C06E513E02AE736E14C2D6A2D88E30E945F10CC24DD241FE7812E1AE04B
:205F2000912E5601B0E16B2EB2E07B2E80917E0A992787FD9095F30121913F0133278223FF
:205F40009323892B51F1A1E0EA2E00E0202F43E856E16A2D80E50E94AD6D8091C10599271C
:205F600001978C159D0509F40E2D21E0F40140816A2D82E60E94350F20E08091C1059927DB
:205F800001978C159D0509F421E0F1E0EF2E00E047E856E16A2D8AE710C020E08091C10545
:205FA000992701978C159D0509F421E0E1E0EE2E00E049E856E16A2D80E50E94AD6D0894CF
:205FC000C11CD11C88E090E0A80EB91E0894811C911C98E0C916D10408F4A8CFE1E1FE1637
:205FE00009F067C08091020A813021F41092490A0E94B2738091490A882309F05AC081E05F
:206000008093490AE091C1058E2F99278430910539F1853091054CF482309105B9F08330C3
:206020009105CCF4019769F033C08630910511F186309105D4F08730910509F1089721F1D0
:2060400027C0C0918B05D0918C0522C0C0918905D0918A051DC0C0918D05D0918E0518C049
:20606000C0918705D091880513C0C0911D0CD0911E0C0EC0C091A60BD091A70B09C0C09180
:20608000E10BD091E20B04C0C091C50BD091C60BCE0180509E4F6AE070E00E94077DEB0177
:2060A0006536710514F0C4E6D0E0FF27E75AF54FC5A38F2D8152823008F5F1E2FF16D1F473
:2060C00080916102E82FFF27EE0FFF1FEE5AFA4F0081118141E050E06EE77AE0C80185966C
:2060E0000E945C7948E050E06FE77AE0C80186960E945C790E944D1C0E94240FDF91CF9115
:206100001F910F91FF90EF90DF90CF90BF90AF909F908F907F906F90089581E08093C10592
:2061200088E08093C20586E1809398051092490A80E00E94402F0895EF920F931F93CF93CC
:20614000C82F0E94DB10C33011F0C33181F46091C105613029F420E043EA5AE0822F05C01C
:2061600020E044EA5AE062E382EE0E94180EC43011F0C43181F46091C105613029F4262F21
:2061800043EA5AE080E005C021E044EA5AE062E382EE0E94180E8DE896E10E943F10EE249E
:2061A0000E2D2E2D47E956E168E284E10E94AD6D2E2D4EE956E162E384E10E94AD6D0091B7
:2061C000A30A8091C105002351F02E2D813009F4282F51E0E52E00E045EF53E108C0202FD4
:2061E000813009F4282F41E0E42E41EF53E168E282E50E94AD6D00E08091C105823009F430
:2062000001E021E04091A40A62E38CE40E94350F31E0E32E00E0202F47EA56E162E384E61A
:206220000E94AD6D8C2F8152E81618F1C132E1F480916102E82FFF27EE0FFF1FEE5AFA4FE8
:206240000081118141E050E063EA7AE0C801865B9F4F0E945C7941E050E064EA7AE0C80162
:20626000855B9F4F0E945C790E944D1C0E94240F1AC08091A30A8823B1F0809169058823EB
:2062800049F021E0E22E00E0202F49EA56E164E1802F07C091E0E92E082F282F46EB56E1E2
:2062A00064E10E94AD6DCF911F910F91EF90089581E08093C10582E08093C20587E1809320
:2062C000980580E00E949C300895AF92CF92DF92EF92FF920F931F93CF93DF93982F71E051
:2062E000D72E8152D81678F00E944D1C0E94240F10929E0586E59EEF909363028093620254
:2063000010929D05D3C09352923088F480919E05882319F4D0929E050AC010929E0586E598
:206320009EEF909363028093620210929D05AA2468E0C62EEA2C06E513E024EC36E14C2DEF
:206340006A2D8EE20E945F1001E010E0C7E0D0E098014FE750E0B80181E490E00E94B36CAF
:206360002197085F1F4FD7FFF3CF07E010E0E80198014FE750E0B80181E490E00E94B36CEA
:206380002197085F1F4FD7FFF3CFC7E0D0E0ED2CFF2487010A5F1F4F980141E450E0B70140
:2063A000CA010E94B36C98014FE750E0B701CA010E94B36C980140E650E0B701CA010E94FA
:2063C000B36C88E0D80E2197D7FFE1CF4091890B50918A0B61E180E00E94D90E4091A60B8A
:2063E0005091A70B69E280E00E94D90E40913B0A50913C0A61E080E00E94D90E40916E0B25
:2064000050916F0B69E080E00E94D90E4091010C5091020C69E180E00E94D90E4091C50B4E
:206420005091C60B69E380E00E94D90E40911D0C50911E0C61E280E00E94D90E4091E10B87
:206440005091E20B61E380E00E94D90E8091AB05813061F580918B0590918C0580509E4F69
:20646000AC0164E180E00E94C20F8091890590918A0580509E4FAC016EE180E00E94C20F7C
:2064800080918D0590918E0580509E4FAC0168E280E00E94C20F8091870590918805805003
:2064A0009E4FAC0162E380E00E94C20FDF91CF911F910F91FF90EF90DF90CF90AF90089552
:2064C00081E08093C10584E08093C20588E18093980580E00E9465310895AF92CF92DF92E3
:2064E000EF92FF920F931F93CF93DF93F82E0E94DB1013E0A12EC5E0CC2EEE240AEE14E050
:206500002CEC36E14AE06CE080E20E945F10CEEADAE011E0BAE0CB2ED12C20E08091C10599
:20652000181709F421E08991E82FFF27EE0FFF1FEC50FB4F8C2D8E5FA1E0EA2E00E0408156
:206540005181682F80E40E94AD6D1E0D8AE090E0C80ED91E163008F34EEA5AE08091C10556
:206560008E1511F4EA0111C0823019F4EA0121960CC0833019F4EA01229607C0843019F49F
:20658000EA01239602C0EA01249693E0F91619F083E1F81631F420E0AE0165E0822F0E9487
:2065A000180E94E0F91619F084E1F81631F421E0AE0165E080E00E94180E8F2D8152823033
:2065C000C8F491E2F91691F480916102E82FFF27EE0FFF1FEE5AFA4F8081918145E050E033
:2065E0006EEA7AE08B5A9F4F0E945C790E944D1C0E94240FDF91CF911F910F91FF90EF9091
:20660000DF90CF90AF90089581E08093C10585E08093C20589E18093980580E00E946D329C
:206620000895CF93C82F83ED96E10E943F108C2F0E94DB108C2F81528230C8F4C13291F4D0
:2066400080916102E82FFF27EE0FFF1FEE5AFA4F8081918143E050E062EC7AE087599F4F01
:206660000E945C790E944D1C0E94240F43C0C33011F0C33181F46091C105613029F420E0FE
:2066800042EC5AE0822F05C020E043EC5AE064E68CE90E94180EC13169F48091020A81300F
:2066A000E9F48091C1058230C9F41092C30A0E94B27314C0C43011F0C43181F46091C10597
:2066C000613029F4262F42EC5AE080E005C021E043EC5AE064E68CE90E94180E4091C20A9C
:2066E00060916705709168058091C30A0E9436128093C40ACF91089581E08093C10582E08D
:206700008093C2058AE18093980580E00E9411330895EF920F93CF93C82F0E94796EEE248A
:206720000E2D2E2D4BED56E16E2D8E2D0E94AD6D992787FD9095AC01440F551F440F551F9E
:20674000480F591F480F591F2AE030E0B90180E090E00E94B36C8C2F0E94DB108C2F815260
:206760008230C8F4C13291F480916102E82FFF27EE0FFF1FEE5AFA4F8081918143E050E070
:2067800065EC7AE084599F4F0E945C790E944D1C0E94240F43C0C33011F0C33181F46091DB
:2067A000C105613029F420E045EC5AE0822F05C020E046EC5AE064E68CE90E94180EC1319F
:2067C00069F48091020A8130E9F48091C1058230C9F41092C60A0E94B27314C0C43011F069
:2067E000C43181F46091C105613029F4262F45EC5AE080E005C021E046EC5AE064E68CE9B9
:206800000E94180E4091C50A60916505709166058091C60A0E9436128093C70ACF910F919A
:20682000EF90089581E08093C10582E08093C2058BE18093980580E00E94893308958F922E
:20684000AF92CF92EF92FF920F931F93CF93DF93CDB7DEB76C970FB6F894DEBF0FBECDBFF9
:20686000682F8152823018F56132E1F480916102E82FFF27EE0FFF1FEE5AFA4F0081118117
:2068800043E050E067EB7AE0C801825A9F4F0E945C7941E050E066E37BE0C80183529F4F6E
:2068A0000E945C790E944D1C0E94240F38C08091360B898F8091B70A8A8F8091B80A8B8F47
:2068C0008091B90A8C8F19821A821B821C821D821E821F928AE08F9320E3822E9DE0A92ED4
:2068E00080E1C82E7E010894E11CF11C03E09E01265E3F4FAE01475E5F4F8EED93E00E94F6
:20690000661C898D8093360B8A8D8093B70A8B8D8093B80A8C8D8093B90A0F900F906C9684
:206920000FB6F894DEBF0FBECDBFDF91CF911F910F91FF90EF90CF90AF908F90089581E027
